{
  "contractName": "HelloEtherlink",
  "abi": [
    {
      "inputs": [],
      "stateMutability": "nonpayable",
      "type": "constructor"
    },
    {
      "inputs": [],
      "name": "testValue",
      "outputs": [
        {
          "internalType": "uint256",
          "name": "",
          "type": "uint256"
        }
      ],
      "stateMutability": "view",
      "type": "function"
    }
  ],
  "bytecode": "0x608060405234801561001057600080fd5b50602a60008190555060d0806100276000396000f3fe6080604052348015600f57600080fd5b50600436106045576000357c0100000000000000000000000000000000000000000000000000000000900480638af5de7214604a575b600080fd5b60506064565b604051605b91906081565b60405180910390f35b60005481565b6000819050919050565b607b81606a565b82525050565b6000602082019050609460008301846074565b9291505056fea264697066735822122044a4e1adaa7552f4f968ac03868843156cff69c3a5253e7e49eb4810088924d264736f6c63430008150033",
  "immutableReferences": {},
  "source": "// SPDX-License-Identifier: MIT\r\npragma solidity 0.8.21;\r\n\r\ncontract HelloEtherlink {\r\n    uint public testValue;\r\n\r\n    constructor() {\r\n        testValue = 42;\r\n    }\r\n}\r\n",
  "sourcePath": "C:\\Users\\rishi\\OneDrive\\Desktop\\Transfinitte\\FastAPI_Template\\client\\rishi\\contracts\\HelloEtherlink.sol",
  "compiler": {
    "name": "solc",
    "version": "0.8.21+commit.d9974bed.Emscripten.clang"
  },
  "schemaVersion": "3.4.10",
  "updatedAt": "2024-10-20T06:19:41.813Z",
  "devdoc": {
    "kind": "dev",
    "methods": {},
    "version": 1
  },
  "userdoc": {
    "kind": "user",
    "methods": {},
    "version": 1
  }
}